{
  "address": "0x36DE7F71a38d761C30b8F2FD60076fccea92DF87",
  "abi": [
    {
      "inputs": [
        {
          "internalType": "address",
          "name": "priceFeedAddress",
          "type": "address"
        }
      ],
      "stateMutability": "nonpayable",
      "type": "constructor"
    },
    {
      "inputs": [],
      "name": "FundMe__NotOwner",
      "type": "error"
    },
    {
      "inputs": [],
      "name": "MINIMUM_USD",
      "outputs": [
        {
          "internalType": "uint256",
          "name": "",
          "type": "uint256"
        }
      ],
      "stateMutability": "view",
      "type": "function"
    },
    {
      "inputs": [],
      "name": "cheaperWithdraw",
      "outputs": [],
      "stateMutability": "nonpayable",
      "type": "function"
    },
    {
      "inputs": [],
      "name": "fund",
      "outputs": [],
      "stateMutability": "payable",
      "type": "function"
    },
    {
      "inputs": [
        {
          "internalType": "address",
          "name": "funder",
          "type": "address"
        }
      ],
      "name": "getAddressToAmountFunded",
      "outputs": [
        {
          "internalType": "uint256",
          "name": "",
          "type": "uint256"
        }
      ],
      "stateMutability": "view",
      "type": "function"
    },
    {
      "inputs": [
        {
          "internalType": "uint256",
          "name": "index",
          "type": "uint256"
        }
      ],
      "name": "getFunder",
      "outputs": [
        {
          "internalType": "address",
          "name": "",
          "type": "address"
        }
      ],
      "stateMutability": "view",
      "type": "function"
    },
    {
      "inputs": [],
      "name": "getOnwer",
      "outputs": [
        {
          "internalType": "address",
          "name": "",
          "type": "address"
        }
      ],
      "stateMutability": "view",
      "type": "function"
    },
    {
      "inputs": [],
      "name": "getPriceFeed",
      "outputs": [
        {
          "internalType": "contract AggregatorV3Interface",
          "name": "",
          "type": "address"
        }
      ],
      "stateMutability": "view",
      "type": "function"
    },
    {
      "inputs": [],
      "name": "s_priceFeed",
      "outputs": [
        {
          "internalType": "contract AggregatorV3Interface",
          "name": "",
          "type": "address"
        }
      ],
      "stateMutability": "view",
      "type": "function"
    },
    {
      "inputs": [],
      "name": "withdraw",
      "outputs": [],
      "stateMutability": "nonpayable",
      "type": "function"
    }
  ],
  "transactionHash": "0x7df0abc5640d4461393aaa503d2dce0f51c19b542e983795f0f08523f2ce8714",
  "args": [
    "0x694AA1769357215DE4FAC081bf1f309aDC325306"
  ],
  "numDeployments": 1,
  "solcInputHash": "642cb37e70750d4ca43499689baa709e",
  "bytecode": "0x60a060405234801561001057600080fd5b506040516111f33803806111f383398181016040528101906100329190610110565b3373ffffffffffffffffffffffffffffffffffffffff1660808173ffffffffffffffffffffffffffffffffffffffff168152505080600260006101000a81548173ffffffffffffffffffffffffffffffffffffffff021916908373ffffffffffffffffffffffffffffffffffffffff1602179055505061013d565b600080fd5b600073ffffffffffffffffffffffffffffffffffffffff82169050919050565b60006100dd826100b2565b9050919050565b6100ed816100d2565b81146100f857600080fd5b50565b60008151905061010a816100e4565b92915050565b600060208284031215610126576101256100ad565b5b6000610134848285016100fb565b91505092915050565b60805161108d6101666000396000818161025901528181610606015261062c015261108d6000f3fe6080604052600436106100865760003560e01c80639e87a5cd116100595780639e87a5cd14610135578063b60d428814610160578063b634b8e51461016a578063be2693f014610195578063d7b4750c146101ac57610086565b80630343fb251461008b5780630ec3b027146100c85780633ccfd60b146100f35780636b69a5921461010a575b600080fd5b34801561009757600080fd5b506100b260048036038101906100ad9190610ae7565b6101e9565b6040516100bf9190610b2d565b60405180910390f35b3480156100d457600080fd5b506100dd610231565b6040516100ea9190610ba7565b60405180910390f35b3480156100ff57600080fd5b50610108610257565b005b34801561011657600080fd5b5061011f610491565b60405161012c9190610b2d565b60405180910390f35b34801561014157600080fd5b5061014a61049e565b6040516101579190610ba7565b60405180910390f35b6101686104c8565b005b34801561017657600080fd5b5061017f610602565b60405161018c9190610bd1565b60405180910390f35b3480156101a157600080fd5b506101aa61062a565b005b3480156101b857600080fd5b506101d360048036038101906101ce9190610c18565b6108c8565b6040516101e09190610bd1565b60405180910390f35b60008060008373ffffffffffffffffffffffffffffffffffffffff1673ffffffffffffffffffffffffffffffffffffffff168152602001908152602001600020549050919050565b600260009054906101000a900473ffffffffffffffffffffffffffffffffffffffff1681565b7f000000000000000000000000000000000000000000000000000000000000000073ffffffffffffffffffffffffffffffffffffffff163373ffffffffffffffffffffffffffffffffffffffff16146102dc576040517f579610db00000000000000000000000000000000000000000000000000000000815260040160405180910390fd5b60005b6001805490508110156103815760006001828154811061030257610301610c45565b5b9060005260206000200160009054906101000a900473ffffffffffffffffffffffffffffffffffffffff16905060008060008373ffffffffffffffffffffffffffffffffffffffff1673ffffffffffffffffffffffffffffffffffffffff168152602001908152602001600020819055505080806001019150506102df565b50600067ffffffffffffffff81111561039d5761039c610c74565b5b6040519080825280602002602001820160405280156103cb5781602001602082028036833780820191505090505b50600190805190602001906103e19291906109dd565b5060003373ffffffffffffffffffffffffffffffffffffffff164760405161040890610cd4565b60006040518083038185875af1925050503d8060008114610445576040519150601f19603f3d011682016040523d82523d6000602084013e61044a565b606091505b505090508061048e576040517f08c379a000000000000000000000000000000000000000000000000000000000815260040161048590610d46565b60405180910390fd5b50565b6802b5e3af16b188000081565b6000600260009054906101000a900473ffffffffffffffffffffffffffffffffffffffff16905090565b6802b5e3af16b1880000610507600260009054906101000a900473ffffffffffffffffffffffffffffffffffffffff163461091090919063ffffffff16565b1015610548576040517f08c379a000000000000000000000000000000000000000000000000000000000815260040161053f90610db2565b60405180910390fd5b346000803373ffffffffffffffffffffffffffffffffffffffff1673ffffffffffffffffffffffffffffffffffffffff16815260200190815260200160002060008282546105969190610e01565b925050819055506001339080600181540180825580915050600190039060005260206000200160009091909190916101000a81548173ffffffffffffffffffffffffffffffffffffffff021916908373ffffffffffffffffffffffffffffffffffffffff160217905550565b60007f0000000000000000000000000000000000000000000000000000000000000000905090565b7f000000000000000000000000000000000000000000000000000000000000000073ffffffffffffffffffffffffffffffffffffffff163373ffffffffffffffffffffffffffffffffffffffff16146106af576040517f579610db00000000000000000000000000000000000000000000000000000000815260040160405180910390fd5b6000600180548060200260200160405190810160405280929190818152602001828054801561073357602002820191906000526020600020905b8160009054906101000a900473ffffffffffffffffffffffffffffffffffffffff1673ffffffffffffffffffffffffffffffffffffffff16815260200190600101908083116106e9575b5050505050905060005b81518110156108c457600082828151811061075b5761075a610c45565b5b6020026020010151905060008060008373ffffffffffffffffffffffffffffffffffffffff1673ffffffffffffffffffffffffffffffffffffffff16815260200190815260200160002081905550600067ffffffffffffffff8111156107c4576107c3610c74565b5b6040519080825280602002602001820160405280156107f25781602001602082028036833780820191505090505b50600190805190602001906108089291906109dd565b5060003373ffffffffffffffffffffffffffffffffffffffff164760405161082f90610cd4565b60006040518083038185875af1925050503d806000811461086c576040519150601f19603f3d011682016040523d82523d6000602084013e610871565b606091505b50509050806108b5576040517f08c379a00000000000000000000000000000000000000000000000000000000081526004016108ac90610d46565b60405180910390fd5b5050808060010191505061073d565b5050565b6000600182815481106108de576108dd610c45565b5b9060005260206000200160009054906101000a900473ffffffffffffffffffffffffffffffffffffffff169050919050565b60008061091c8361094c565b90506000670de0b6b3a764000085836109359190610e35565b61093f9190610ea6565b9050809250505092915050565b6000808273ffffffffffffffffffffffffffffffffffffffff1663feaf968c6040518163ffffffff1660e01b815260040160a060405180830381865afa15801561099a573d6000803e3d6000fd5b505050506040513d601f19601f820116820180604052508101906109be9190610f64565b5050509150506402540be400816109d59190610fdf565b915050919050565b828054828255906000526020600020908101928215610a56579160200282015b82811115610a555782518260006101000a81548173ffffffffffffffffffffffffffffffffffffffff021916908373ffffffffffffffffffffffffffffffffffffffff160217905550916020019190600101906109fd565b5b509050610a639190610a67565b5090565b5b80821115610a80576000816000905550600101610a68565b5090565b600080fd5b600073ffffffffffffffffffffffffffffffffffffffff82169050919050565b6000610ab482610a89565b9050919050565b610ac481610aa9565b8114610acf57600080fd5b50565b600081359050610ae181610abb565b92915050565b600060208284031215610afd57610afc610a84565b5b6000610b0b84828501610ad2565b91505092915050565b6000819050919050565b610b2781610b14565b82525050565b6000602082019050610b426000830184610b1e565b92915050565b6000819050919050565b6000610b6d610b68610b6384610a89565b610b48565b610a89565b9050919050565b6000610b7f82610b52565b9050919050565b6000610b9182610b74565b9050919050565b610ba181610b86565b82525050565b6000602082019050610bbc6000830184610b98565b92915050565b610bcb81610aa9565b82525050565b6000602082019050610be66000830184610bc2565b92915050565b610bf581610b14565b8114610c0057600080fd5b50565b600081359050610c1281610bec565b92915050565b600060208284031215610c2e57610c2d610a84565b5b6000610c3c84828501610c03565b91505092915050565b7f4e487b7100000000000000000000000000000000000000000000000000000000600052603260045260246000fd5b7f4e487b7100000000000000000000000000000000000000000000000000000000600052604160045260246000fd5b600081905092915050565b50565b6000610cbe600083610ca3565b9150610cc982610cae565b600082019050919050565b6000610cdf82610cb1565b9150819050919050565b600082825260208201905092915050565b7f43616c6c206661696c6564000000000000000000000000000000000000000000600082015250565b6000610d30600b83610ce9565b9150610d3b82610cfa565b602082019050919050565b60006020820190508181036000830152610d5f81610d23565b9050919050565b7f596f75206e65656420746f207370656e64206d6f726520455448210000000000600082015250565b6000610d9c601b83610ce9565b9150610da782610d66565b602082019050919050565b60006020820190508181036000830152610dcb81610d8f565b9050919050565b7f4e487b7100000000000000000000000000000000000000000000000000000000600052601160045260246000fd5b6000610e0c82610b14565b9150610e1783610b14565b9250828201905080821115610e2f57610e2e610dd2565b5b92915050565b6000610e4082610b14565b9150610e4b83610b14565b9250828202610e5981610b14565b91508282048414831517610e7057610e6f610dd2565b5b5092915050565b7f4e487b7100000000000000000000000000000000000000000000000000000000600052601260045260246000fd5b6000610eb182610b14565b9150610ebc83610b14565b925082610ecc57610ecb610e77565b5b828204905092915050565b600069ffffffffffffffffffff82169050919050565b610ef681610ed7565b8114610f0157600080fd5b50565b600081519050610f1381610eed565b92915050565b6000819050919050565b610f2c81610f19565b8114610f3757600080fd5b50565b600081519050610f4981610f23565b92915050565b600081519050610f5e81610bec565b92915050565b600080600080600060a08688031215610f8057610f7f610a84565b5b6000610f8e88828901610f04565b9550506020610f9f88828901610f3a565b9450506040610fb088828901610f4f565b9350506060610fc188828901610f4f565b9250506080610fd288828901610f04565b9150509295509295909350565b6000610fea82610f19565b9150610ff583610f19565b925082820261100381610f19565b91507f8000000000000000000000000000000000000000000000000000000000000000841460008412161561103b5761103a610dd2565b5b82820584148315176110505761104f610dd2565b5b509291505056fea2646970667358221220d9f0f7b61ab411bf0c6cbcb9c22d559649e81a588da214b13bb09d0cbe963e0b64736f6c634300081b0033",
  "devdoc": {
    "author": "Yomi-Olugbodi Boluwatife",
    "details": "This implements price feeds as our library",
    "kind": "dev",
    "methods": {
      "fund()": {
        "details": "This implements price feeds as our library"
      }
    },
    "title": "A contract for crowd funding",
    "version": 1
  },
  "userdoc": {
    "kind": "user",
    "methods": {
      "fund()": {
        "notice": "This Function funds this contract"
      }
    },
    "notice": "This contract is to demo a sample funding project",
    "version": 1
  },
  "storageLayout": {
    "storage": [
      {
        "astId": 59,
        "contract": "contracts/FundMe.sol:FundMe",
        "label": "s_addressToAmountFunded",
        "offset": 0,
        "slot": "0",
        "type": "t_mapping(t_address,t_uint256)"
      },
      {
        "astId": 62,
        "contract": "contracts/FundMe.sol:FundMe",
        "label": "s_funders",
        "offset": 0,
        "slot": "1",
        "type": "t_array(t_address)dyn_storage"
      },
      {
        "astId": 86,
        "contract": "contracts/FundMe.sol:FundMe",
        "label": "s_priceFeed",
        "offset": 0,
        "slot": "2",
        "type": "t_contract(AggregatorV3Interface)45"
      }
    ],
    "types": {
      "t_address": {
        "encoding": "inplace",
        "label": "address",
        "numberOfBytes": "20"
      },
      "t_array(t_address)dyn_storage": {
        "base": "t_address",
        "encoding": "dynamic_array",
        "label": "address[]",
        "numberOfBytes": "32"
      },
      "t_contract(AggregatorV3Interface)45": {
        "encoding": "inplace",
        "label": "contract AggregatorV3Interface",
        "numberOfBytes": "20"
      },
      "t_mapping(t_address,t_uint256)": {
        "encoding": "mapping",
        "key": "t_address",
        "label": "mapping(address => uint256)",
        "numberOfBytes": "32",
        "value": "t_uint256"
      },
      "t_uint256": {
        "encoding": "inplace",
        "label": "uint256",
        "numberOfBytes": "32"
      }
    }
  }
}